{
  "contractName": "SecurePayment",
  "abi": [
    {
      "constant": false,
      "inputs": [],
      "name": "kill",
      "outputs": [],
      "payable": false,
      "stateMutability": "nonpayable",
      "type": "function"
    },
    {
      "payable": true,
      "stateMutability": "payable",
      "type": "fallback"
    },
    {
      "anonymous": false,
      "inputs": [
        {
          "indexed": false,
          "name": "senderAddress",
          "type": "address"
        },
        {
          "indexed": false,
          "name": "amountInWei",
          "type": "uint256"
        }
      ],
      "name": "senderAndAmount",
      "type": "event"
    },
    {
      "anonymous": false,
      "inputs": [
        {
          "indexed": false,
          "name": "thePersonAddeed",
          "type": "address"
        },
        {
          "indexed": false,
          "name": "theNewAddress",
          "type": "address"
        },
        {
          "indexed": false,
          "name": "maxAmountCanTransfer",
          "type": "uint256"
        }
      ],
      "name": "newAddressAddedToSenderList",
      "type": "event"
    },
    {
      "anonymous": false,
      "inputs": [
        {
          "indexed": false,
          "name": "newBettor",
          "type": "address"
        },
        {
          "indexed": false,
          "name": "balance",
          "type": "uint256"
        }
      ],
      "name": "newBettor",
      "type": "event"
    },
    {
      "anonymous": false,
      "inputs": [
        {
          "indexed": false,
          "name": "oldBettor",
          "type": "address"
        },
        {
          "indexed": false,
          "name": "newBalance",
          "type": "uint256"
        }
      ],
      "name": "oldBettor",
      "type": "event"
    },
    {
      "constant": false,
      "inputs": [],
      "name": "addFunds",
      "outputs": [],
      "payable": true,
      "stateMutability": "payable",
      "type": "function"
    },
    {
      "constant": false,
      "inputs": [
        {
          "name": "bet",
          "type": "uint256"
        },
        {
          "name": "win",
          "type": "bool"
        }
      ],
      "name": "betOnPayoutTwo",
      "outputs": [],
      "payable": true,
      "stateMutability": "payable",
      "type": "function"
    },
    {
      "constant": false,
      "inputs": [
        {
          "name": "amountInWei",
          "type": "uint256"
        }
      ],
      "name": "withdrawMoney",
      "outputs": [],
      "payable": true,
      "stateMutability": "payable",
      "type": "function"
    },
    {
      "constant": false,
      "inputs": [
        {
          "name": "bettor",
          "type": "address"
        }
      ],
      "name": "removeBettorFromList",
      "outputs": [],
      "payable": false,
      "stateMutability": "nonpayable",
      "type": "function"
    },
    {
      "constant": true,
      "inputs": [],
      "name": "getContractAddress",
      "outputs": [
        {
          "name": "",
          "type": "address"
        }
      ],
      "payable": false,
      "stateMutability": "view",
      "type": "function"
    },
    {
      "constant": true,
      "inputs": [
        {
          "name": "addy",
          "type": "address"
        }
      ],
      "name": "getBettorBalance",
      "outputs": [
        {
          "name": "",
          "type": "uint256"
        }
      ],
      "payable": false,
      "stateMutability": "view",
      "type": "function"
    },
    {
      "constant": true,
      "inputs": [],
      "name": "getCasinoBalance",
      "outputs": [
        {
          "name": "",
          "type": "uint256"
        }
      ],
      "payable": false,
      "stateMutability": "view",
      "type": "function"
    }
  ],
  "bytecode": "0x60806040526000600355336000806101000a81548173ffffffffffffffffffffffffffffffffffffffff021916908373ffffffffffffffffffffffffffffffffffffffff160217905550610d5c806100586000396000f30060806040526004361061008e576000357c0100000000000000000000000000000000000000000000000000000000900463ffffffff1680631a0843c01461009057806332a2c5d0146100bb57806341c0e1b514610112578063548769211461012957806363f410f71461014957806366274a0c1461018c578063a26759cb146101e3578063bcf8d562146101ed575b005b34801561009c57600080fd5b506100a5610219565b6040518082815260200191505060405180910390f35b3480156100c757600080fd5b506100d0610238565b604051808273ffffffffffffffffffffffffffffffffffffffff1673ffffffffffffffffffffffffffffffffffffffff16815260200191505060405180910390f35b34801561011e57600080fd5b50610127610240565b005b610147600480360381019080803590602001909291905050506102d4565b005b34801561015557600080fd5b5061018a600480360381019080803573ffffffffffffffffffffffffffffffffffffffff1690602001909291905050506105b0565b005b34801561019857600080fd5b506101cd600480360381019080803573ffffffffffffffffffffffffffffffffffffffff16906020019092919050505061064c565b6040518082815260200191505060405180910390f35b6101eb610698565b005b61021760048036038101908080359060200190929190803515159060200190929190505050610a1a565b005b60003073ffffffffffffffffffffffffffffffffffffffff1631905090565b600030905090565b3373ffffffffffffffffffffffffffffffffffffffff166000809054906101000a900473ffffffffffffffffffffffffffffffffffffffff1673ffffffffffffffffffffffffffffffffffffffff1614156102cf576000809054906101000a900473ffffffffffffffffffffffffffffffffffffffff1673ffffffffffffffffffffffffffffffffffffffff16ff5b600080fd5b60001515600260003373ffffffffffffffffffffffffffffffffffffffff1673ffffffffffffffffffffffffffffffffffffffff16815260200190815260200160002060009054906101000a900460ff16151514156103c1576040517f08c379a00000000000000000000000000000000000000000000000000000000081526004018080602001828103825260288152602001807f596f75277265206e6f7420616c6c6f77656420746f206d616b6520612074726181526020017f6e73616374696f6e00000000000000000000000000000000000000000000000081525060400191505060405180910390fd5b600160003373ffffffffffffffffffffffffffffffffffffffff1673ffffffffffffffffffffffffffffffffffffffff168152602001908152602001600020600001548111801561042857503073ffffffffffffffffffffffffffffffffffffffff163181115b156104c1576040517f08c379a000000000000000000000000000000000000000000000000000000000815260040180806020018281038252602a8152602001807f596f7520646f6e277420686176652074686174206d756368206d6f6e6579207481526020017f6f2077697468647261770000000000000000000000000000000000000000000081525060400191505060405180910390fd5b80600160003373ffffffffffffffffffffffffffffffffffffffff1673ffffffffffffffffffffffffffffffffffffffff168152602001908152602001600020600001600082825403925050819055503373ffffffffffffffffffffffffffffffffffffffff166108fc829081150290604051600060405180830381858888f19350505050158015610557573d6000803e3d6000fd5b506000600160003373ffffffffffffffffffffffffffffffffffffffff1673ffffffffffffffffffffffffffffffffffffffff1681526020019081526020016000206000015414156105ad576105ac336105b0565b5b50565b600160008273ffffffffffffffffffffffffffffffffffffffff1673ffffffffffffffffffffffffffffffffffffffff1681526020019081526020016000206000808201600090555050600260008273ffffffffffffffffffffffffffffffffffffffff1673ffffffffffffffffffffffffffffffffffffffff16815260200190815260200160002060006101000a81549060ff021916905550565b6000600160008373ffffffffffffffffffffffffffffffffffffffff1673ffffffffffffffffffffffffffffffffffffffff168152602001908152602001600020600001549050919050565b600034111515610710576040517f08c379a00000000000000000000000000000000000000000000000000000000081526004018080602001828103825260178152602001807f596f75206d75737420616464206d6f7265206d6f6e657900000000000000000081525060200191505060405180910390fd5b3373ffffffffffffffffffffffffffffffffffffffff163134111561079d576040517f08c379a000000000000000000000000000000000000000000000000000000000815260040180806020018281038252601e8152602001807f596f7520646f6e277420686176652074686174206d756368206d6f6e6579000081525060200191505060405180910390fd5b60001515600260003373ffffffffffffffffffffffffffffffffffffffff1673ffffffffffffffffffffffffffffffffffffffff16815260200190815260200160002060009054906101000a900460ff161515141561091a576001600260003373ffffffffffffffffffffffffffffffffffffffff1673ffffffffffffffffffffffffffffffffffffffff16815260200190815260200160002060006101000a81548160ff02191690831515021790555060206040519081016040528034815250600160003373ffffffffffffffffffffffffffffffffffffffff1673ffffffffffffffffffffffffffffffffffffffff168152602001908152602001600020600082015181600001559050507f481d0222d964ac343799a0b1099006d644736db860e4a84c49382de607a12a1c3334604051808373ffffffffffffffffffffffffffffffffffffffff1673ffffffffffffffffffffffffffffffffffffffff1681526020018281526020019250505060405180910390a1610a18565b34600160003373ffffffffffffffffffffffffffffffffffffffff1673ffffffffffffffffffffffffffffffffffffffff168152602001908152602001600020600001600082825401925050819055507f9f849eeca71dab7756e40c8bd4287a540029ae3f9d169890b12ffc2b6705865a33600160003373ffffffffffffffffffffffffffffffffffffffff1673ffffffffffffffffffffffffffffffffffffffff16815260200190815260200160002060000154604051808373ffffffffffffffffffffffffffffffffffffffff1673ffffffffffffffffffffffffffffffffffffffff1681526020018281526020019250505060405180910390a15b565b600160003373ffffffffffffffffffffffffffffffffffffffff1673ffffffffffffffffffffffffffffffffffffffff16815260200190815260200160002060000154821115610af8576040517f08c379a000000000000000000000000000000000000000000000000000000000815260040180806020018281038252603b8152602001807f596f7520646f6e74206861766520656e6f756768206d6f6e657920696e20796f81526020017f7572206163636f756e7420746f206265742074686174206d756368000000000081525060400191505060405180910390fd5b600a3073ffffffffffffffffffffffffffffffffffffffff1631811515610b1b57fe5b04600283021115610bba576040517f08c379a00000000000000000000000000000000000000000000000000000000081526004018080602001828103825260238152602001807f436173696e6f2063616e74206166666f726420746f2074616b6520796f75722081526020017f626574000000000000000000000000000000000000000000000000000000000081525060400191505060405180910390fd5b8015610c7b5760206040519081016040528060028402600160003373ffffffffffffffffffffffffffffffffffffffff1673ffffffffffffffffffffffffffffffffffffffff1681526020019081526020016000206000015401815250600160003373ffffffffffffffffffffffffffffffffffffffff1673ffffffffffffffffffffffffffffffffffffffff1681526020019081526020016000206000820151816000015590505060028202600360008282540192505081905550610d2c565b60206040519081016040528083600160003373ffffffffffffffffffffffffffffffffffffffff1673ffffffffffffffffffffffffffffffffffffffff1681526020019081526020016000206000015403815250600160003373ffffffffffffffffffffffffffffffffffffffff1673ffffffffffffffffffffffffffffffffffffffff16815260200190815260200160002060008201518160000155905050816003600082825403925050819055505b50505600a165627a7a7230582005bb0c657fdeab9de780a69c0e8a853f8d1828c9619c4004b9829176845d48e00029",
  "source": "pragma solidity ^0.4.20;\n\nimport './mortal.sol';\n\ncontract SecurePayment is mortal {\n    \n  mapping(address => Bet) BettorList;\n  mapping(address => bool) Exists;\n  \n  uint CasinoLosses = 0;\n  \n  \n  event senderAndAmount(address senderAddress, uint amountInWei);\n  \n  event newAddressAddedToSenderList(address thePersonAddeed, address theNewAddress, uint maxAmountCanTransfer);\n  event newBettor(address newBettor, uint balance);\n  event oldBettor(address oldBettor, uint newBalance);\n  \n  struct Bet {\n      uint balance; \n  }\n \n  \n  function addFunds () public payable {\n      if (msg.value <= 0) {\n          revert(\"You must add more money\");\n      }\n      if (msg.value > msg.sender.balance) {\n          revert(\"You don't have that much money\");\n      }\n      //check if user already exists. if so add to their value if not create new user\n      if (Exists[msg.sender] == false) {\n          Exists[msg.sender] = true;\n          BettorList[msg.sender] = Bet(msg.value);\n          emit newBettor(msg.sender, msg.value); \n      }\n      else {\n        BettorList[msg.sender].balance += msg.value;\n        emit oldBettor(msg.sender, BettorList[msg.sender].balance);      \n      }\n      \n        \n      \n      \n  } \n  \n  // winning even/odd or red/black bet\n  function betOnPayoutTwo (uint bet, bool win) public payable {\n      if (bet > BettorList[msg.sender].balance) {\n          revert(\"You dont have enough money in your account to bet that much\");\n      }\n      if (bet * 2 > address(this).balance/10) {\n          revert(\"Casino cant afford to take your bet\");\n      }\n      if (win) {\n        BettorList[msg.sender] = Bet(BettorList[msg.sender].balance + bet*2); \n        CasinoLosses += bet * 2;\n      }\n      else {\n        BettorList[msg.sender] = Bet(BettorList[msg.sender].balance - bet);  \n        CasinoLosses -= bet;\n      }\n      \n  }\n    // function winPayout35 (address winner, uint bet) private {\n    //     if (Exists[winner]) {\n    //         BettorList[winner].balance += (bet * 35);\n    //     }\n    // }  \n  \n  function withdrawMoney (uint amountInWei) public payable {\n        if (Exists[msg.sender] == false) {\n            revert(\"You're not allowed to make a transaction\");\n        }\n        if (amountInWei > BettorList[msg.sender].balance && amountInWei > address(this).balance) {\n            revert(\"You don't have that much money to withdraw\");\n        }\n        BettorList[msg.sender].balance -= amountInWei;\n        msg.sender.transfer(amountInWei);\n        \n        if (BettorList[msg.sender].balance == 0) {\n            removeBettorFromList(msg.sender);\n        }\n        \n    }  \n  \n    function removeBettorFromList (address bettor) public {\n        delete BettorList[bettor];\n        delete Exists[bettor];\n    }  \n\n\n    function () public payable {\n    }\n  \n    \n    \n    function getContractAddress () public view returns (address) {\n        return this;\n    }\n    \n    function getBettorBalance (address addy) public view returns (uint) {\n        return BettorList[addy].balance; \n    }\n    \n    function getCasinoBalance () public view returns (uint) {\n        return address(this).balance;\n    } \n    \n    \n  \n\n  \n//   function addAddressToSenderList(address permitted) public onlyOwner {\n//       mySenderList[permitted] = Permission(true, msg.value);\n//       emit newAddressAddedToSenderList(msg.sender, permitted, msg.value);\n//   }\n  \n  // function addAddressToReceiverList(address permitted) public onlyOwner {\n  //     myReceiverList[permitted] = Receiver(true);\n  //     emit newAddressAddedToReceiverList(msg.sender, permitted);\n  // }\n  \n//   function removeFromAddressToSenderList(address notPermitted) public onlyOwner {\n//       delete mySenderList[notPermitted];\n//   }\n  \n  // function removeAddressFromReceiverList(address notPermitted) public onlyOwner {\n  //     delete myReceiverList[notPermitted];\n  // }\n\n}",
  "sourcePath": "/Users/royshadmon/Ethereum-Payment-Channel/PaymentChannel/contracts/GambleOnChain2.sol",
  "compiler": {
    "name": "solc",
    "version": "0.4.24+commit.e67f0147.Emscripten.clang"
  },
  "schemaVersion": "2.0.1",
  "updatedAt": "2018-12-01T05:35:58.879Z"
}