{
  "contractName": "GambleOnChain",
  "abi": [
    {
      "constant": false,
      "inputs": [],
      "name": "kill",
      "outputs": [],
      "payable": false,
      "stateMutability": "nonpayable",
      "type": "function"
    },
    {
      "payable": true,
      "stateMutability": "payable",
      "type": "fallback"
    },
    {
      "anonymous": false,
      "inputs": [
        {
          "indexed": false,
          "name": "senderAddress",
          "type": "address"
        },
        {
          "indexed": false,
          "name": "amountInWei",
          "type": "uint256"
        }
      ],
      "name": "senderAndAmount",
      "type": "event"
    },
    {
      "anonymous": false,
      "inputs": [
        {
          "indexed": false,
          "name": "thePersonAddeed",
          "type": "address"
        },
        {
          "indexed": false,
          "name": "theNewAddress",
          "type": "address"
        },
        {
          "indexed": false,
          "name": "maxAmountCanTransfer",
          "type": "uint256"
        }
      ],
      "name": "newAddressAddedToSenderList",
      "type": "event"
    },
    {
      "anonymous": false,
      "inputs": [
        {
          "indexed": false,
          "name": "newBettor",
          "type": "address"
        },
        {
          "indexed": false,
          "name": "balance",
          "type": "uint256"
        }
      ],
      "name": "newBettor",
      "type": "event"
    },
    {
      "anonymous": false,
      "inputs": [
        {
          "indexed": false,
          "name": "oldBettor",
          "type": "address"
        },
        {
          "indexed": false,
          "name": "newBalance",
          "type": "uint256"
        }
      ],
      "name": "oldBettor",
      "type": "event"
    },
    {
      "constant": false,
      "inputs": [],
      "name": "addFunds",
      "outputs": [],
      "payable": true,
      "stateMutability": "payable",
      "type": "function"
    },
    {
      "constant": false,
      "inputs": [
        {
          "name": "bet",
          "type": "uint256"
        },
        {
          "name": "win",
          "type": "bool"
        }
      ],
      "name": "betOnPayoutTwo",
      "outputs": [],
      "payable": true,
      "stateMutability": "payable",
      "type": "function"
    },
    {
      "constant": false,
      "inputs": [
        {
          "name": "amountInWei",
          "type": "uint256"
        }
      ],
      "name": "withdrawMoney",
      "outputs": [],
      "payable": true,
      "stateMutability": "payable",
      "type": "function"
    },
    {
      "constant": false,
      "inputs": [
        {
          "name": "bettor",
          "type": "address"
        }
      ],
      "name": "removeBettorFromList",
      "outputs": [],
      "payable": false,
      "stateMutability": "nonpayable",
      "type": "function"
    },
    {
      "constant": true,
      "inputs": [],
      "name": "getContractAddress",
      "outputs": [
        {
          "name": "",
          "type": "address"
        }
      ],
      "payable": false,
      "stateMutability": "view",
      "type": "function"
    },
    {
      "constant": true,
      "inputs": [],
      "name": "getBettorBalance",
      "outputs": [
        {
          "name": "",
          "type": "uint256"
        }
      ],
      "payable": false,
      "stateMutability": "view",
      "type": "function"
    },
    {
      "constant": true,
      "inputs": [],
      "name": "getCasinoBalance",
      "outputs": [
        {
          "name": "",
          "type": "uint256"
        }
      ],
      "payable": false,
      "stateMutability": "view",
      "type": "function"
    }
  ],
  "bytecode": "0x60806040526000600355336000806101000a81548173ffffffffffffffffffffffffffffffffffffffff021916908373ffffffffffffffffffffffffffffffffffffffff160217905550610d32806100586000396000f30060806040526004361061008e576000357c0100000000000000000000000000000000000000000000000000000000900463ffffffff1680631a0843c01461009057806332a2c5d0146100bb57806341c0e1b514610112578063548769211461012957806363f410f71461014957806387503fe71461018c578063a26759cb146101b7578063bcf8d562146101c1575b005b34801561009c57600080fd5b506100a56101ed565b6040518082815260200191505060405180910390f35b3480156100c757600080fd5b506100d0610210565b604051808273ffffffffffffffffffffffffffffffffffffffff1673ffffffffffffffffffffffffffffffffffffffff16815260200191505060405180910390f35b34801561011e57600080fd5b50610127610218565b005b610147600480360381019080803590602001909291905050506102ac565b005b34801561015557600080fd5b5061018a600480360381019080803573ffffffffffffffffffffffffffffffffffffffff169060200190929190505050610588565b005b34801561019857600080fd5b506101a1610624565b6040518082815260200191505060405180910390f35b6101bf61066e565b005b6101eb600480360381019080803590602001909291908035151590602001909291905050506109f0565b005b60006003543073ffffffffffffffffffffffffffffffffffffffff163103905090565b600030905090565b3373ffffffffffffffffffffffffffffffffffffffff166000809054906101000a900473ffffffffffffffffffffffffffffffffffffffff1673ffffffffffffffffffffffffffffffffffffffff1614156102a7576000809054906101000a900473ffffffffffffffffffffffffffffffffffffffff1673ffffffffffffffffffffffffffffffffffffffff16ff5b600080fd5b60001515600260003373ffffffffffffffffffffffffffffffffffffffff1673ffffffffffffffffffffffffffffffffffffffff16815260200190815260200160002060009054906101000a900460ff1615151415610399576040517f08c379a00000000000000000000000000000000000000000000000000000000081526004018080602001828103825260278152602001807f596f757265206e6f7420616c6c6f77656420746f206d616b652061207472616e81526020017f73616374696f6e0000000000000000000000000000000000000000000000000081525060400191505060405180910390fd5b600160003373ffffffffffffffffffffffffffffffffffffffff1673ffffffffffffffffffffffffffffffffffffffff168152602001908152602001600020600001548111801561040057503073ffffffffffffffffffffffffffffffffffffffff163181115b15610499576040517f08c379a00000000000000000000000000000000000000000000000000000000081526004018080602001828103825260298152602001807f596f7520646f6e7420686176652074686174206d756368206d6f6e657920746f81526020017f207769746864726177000000000000000000000000000000000000000000000081525060400191505060405180910390fd5b80600160003373ffffffffffffffffffffffffffffffffffffffff1673ffffffffffffffffffffffffffffffffffffffff168152602001908152602001600020600001600082825403925050819055503373ffffffffffffffffffffffffffffffffffffffff166108fc829081150290604051600060405180830381858888f1935050505015801561052f573d6000803e3d6000fd5b506000600160003373ffffffffffffffffffffffffffffffffffffffff1673ffffffffffffffffffffffffffffffffffffffff1681526020019081526020016000206000015414156105855761058433610588565b5b50565b600160008273ffffffffffffffffffffffffffffffffffffffff1673ffffffffffffffffffffffffffffffffffffffff1681526020019081526020016000206000808201600090555050600260008273ffffffffffffffffffffffffffffffffffffffff1673ffffffffffffffffffffffffffffffffffffffff16815260200190815260200160002060006101000a81549060ff021916905550565b6000600160003373ffffffffffffffffffffffffffffffffffffffff1673ffffffffffffffffffffffffffffffffffffffff16815260200190815260200160002060000154905090565b6000341115156106e6576040517f08c379a00000000000000000000000000000000000000000000000000000000081526004018080602001828103825260178152602001807f596f75206d75737420616464206d6f7265206d6f6e657900000000000000000081525060200191505060405180910390fd5b3373ffffffffffffffffffffffffffffffffffffffff1631341115610773576040517f08c379a000000000000000000000000000000000000000000000000000000000815260040180806020018281038252601e8152602001807f596f7520646f6e277420686176652074686174206d756368206d6f6e6579000081525060200191505060405180910390fd5b60001515600260003373ffffffffffffffffffffffffffffffffffffffff1673ffffffffffffffffffffffffffffffffffffffff16815260200190815260200160002060009054906101000a900460ff16151514156108f0576001600260003373ffffffffffffffffffffffffffffffffffffffff1673ffffffffffffffffffffffffffffffffffffffff16815260200190815260200160002060006101000a81548160ff02191690831515021790555060206040519081016040528034815250600160003373ffffffffffffffffffffffffffffffffffffffff1673ffffffffffffffffffffffffffffffffffffffff168152602001908152602001600020600082015181600001559050507f481d0222d964ac343799a0b1099006d644736db860e4a84c49382de607a12a1c3334604051808373ffffffffffffffffffffffffffffffffffffffff1673ffffffffffffffffffffffffffffffffffffffff1681526020018281526020019250505060405180910390a16109ee565b34600160003373ffffffffffffffffffffffffffffffffffffffff1673ffffffffffffffffffffffffffffffffffffffff168152602001908152602001600020600001600082825401925050819055507f9f849eeca71dab7756e40c8bd4287a540029ae3f9d169890b12ffc2b6705865a33600160003373ffffffffffffffffffffffffffffffffffffffff1673ffffffffffffffffffffffffffffffffffffffff16815260200190815260200160002060000154604051808373ffffffffffffffffffffffffffffffffffffffff1673ffffffffffffffffffffffffffffffffffffffff1681526020018281526020019250505060405180910390a15b565b600160003373ffffffffffffffffffffffffffffffffffffffff1673ffffffffffffffffffffffffffffffffffffffff16815260200190815260200160002060000154821115610ace576040517f08c379a000000000000000000000000000000000000000000000000000000000815260040180806020018281038252603b8152602001807f596f7520646f6e74206861766520656e6f756768206d6f6e657920696e20796f81526020017f7572206163636f756e7420746f206265742074686174206d756368000000000081525060400191505060405180910390fd5b600a3073ffffffffffffffffffffffffffffffffffffffff1631811515610af157fe5b04600283021115610b90576040517f08c379a00000000000000000000000000000000000000000000000000000000081526004018080602001828103825260238152602001807f436173696e6f2063616e74206166666f726420746f2074616b6520796f75722081526020017f626574000000000000000000000000000000000000000000000000000000000081525060400191505060405180910390fd5b8015610c515760206040519081016040528060028402600160003373ffffffffffffffffffffffffffffffffffffffff1673ffffffffffffffffffffffffffffffffffffffff1681526020019081526020016000206000015401815250600160003373ffffffffffffffffffffffffffffffffffffffff1673ffffffffffffffffffffffffffffffffffffffff1681526020019081526020016000206000820151816000015590505060028202600360008282540192505081905550610d02565b60206040519081016040528083600160003373ffffffffffffffffffffffffffffffffffffffff1673ffffffffffffffffffffffffffffffffffffffff1681526020019081526020016000206000015403815250600160003373ffffffffffffffffffffffffffffffffffffffff1673ffffffffffffffffffffffffffffffffffffffff16815260200190815260200160002060008201518160000155905050816003600082825403925050819055505b50505600a165627a7a72305820f0a72f87fb2b3aa91d1bf26fb843462d922b690791c262377f18479990137bf70029",
  "source": "pragma solidity ^0.4.20;\n\nimport './mortal.sol';\n\ncontract GambleOnChain is mortal {\n    \n  mapping(address => Bet) BettorList;\n  mapping(address => bool) Exists;\n  \n  uint CasinoLosses = 0;\n  \n  \n  event senderAndAmount(address senderAddress, uint amountInWei);\n  \n  event newAddressAddedToSenderList(address thePersonAddeed, address theNewAddress, uint maxAmountCanTransfer);\n  event newBettor(address newBettor, uint balance);\n  event oldBettor(address oldBettor, uint newBalance);\n  \n  struct Bet {\n      uint balance; \n  }\n \n  \n  function addFunds () public payable {\n      if (msg.value <= 0) {\n          revert(\"You must add more money\");\n      }\n      if (msg.value > msg.sender.balance) {\n          revert(\"You don't have that much money\");\n      }\n      //check if user already exists. if so add to their value if not create new user\n      if (Exists[msg.sender] == false) {\n          Exists[msg.sender] = true;\n          BettorList[msg.sender] = Bet(msg.value);\n          emit newBettor(msg.sender, msg.value); \n      }\n      else {\n        BettorList[msg.sender].balance += msg.value;\n        emit oldBettor(msg.sender, BettorList[msg.sender].balance);      \n      }\n      \n        \n      \n      \n  } \n  \n  // winning even/odd or red/black bet\n  function betOnPayoutTwo (uint bet, bool win) public payable {\n      if (bet > BettorList[msg.sender].balance) {\n          revert(\"You dont have enough money in your account to bet that much\");\n      }\n      if (bet * 2 > address(this).balance/10) {\n          revert(\"Casino cant afford to take your bet\");\n      }\n      if (win) {\n        BettorList[msg.sender] = Bet(BettorList[msg.sender].balance + bet*2); \n        CasinoLosses += bet * 2;\n      }\n      else {\n        BettorList[msg.sender] = Bet(BettorList[msg.sender].balance - bet);  \n        CasinoLosses -= bet;\n      }\n      \n  }\n    // function winPayout35 (address winner, uint bet) private {\n    //     if (Exists[winner]) {\n    //         BettorList[winner].balance += (bet * 35);\n    //     }\n    // }  \n  \n  function withdrawMoney (uint amountInWei) public payable {\n        if (Exists[msg.sender] == false) {\n            revert(\"Youre not allowed to make a transaction\");\n        }\n        if (amountInWei > BettorList[msg.sender].balance && amountInWei > address(this).balance) {\n            revert(\"You dont have that much money to withdraw\");\n        }\n        BettorList[msg.sender].balance -= amountInWei;\n        msg.sender.transfer(amountInWei);\n        \n        if (BettorList[msg.sender].balance == 0) {\n            removeBettorFromList(msg.sender);\n        }\n        \n    }  \n  \n    function removeBettorFromList (address bettor) public {\n        delete BettorList[bettor];\n        delete Exists[bettor];\n    }  \n\n\n    function () public payable {\n    }\n  \n    \n    \n    function getContractAddress () public view returns (address) {\n        return this;\n    }\n    \n    function getBettorBalance () public view returns (uint) {\n        return BettorList[msg.sender].balance; \n    }\n    \n    function getCasinoBalance () public view returns (uint) {\n        return address(this).balance - CasinoLosses;\n    } \n    \n    \n  \n\n  \n//   function addAddressToSenderList(address permitted) public onlyOwner {\n//       mySenderList[permitted] = Permission(true, msg.value);\n//       emit newAddressAddedToSenderList(msg.sender, permitted, msg.value);\n//   }\n  \n  // function addAddressToReceiverList(address permitted) public onlyOwner {\n  //     myReceiverList[permitted] = Receiver(true);\n  //     emit newAddressAddedToReceiverList(msg.sender, permitted);\n  // }\n  \n//   function removeFromAddressToSenderList(address notPermitted) public onlyOwner {\n//       delete mySenderList[notPermitted];\n//   }\n  \n  // function removeAddressFromReceiverList(address notPermitted) public onlyOwner {\n  //     delete myReceiverList[notPermitted];\n  // }\n\n}",
  "sourcePath": "/Users/royshadmon/Ethereum-Payment-Channel/PaymentChannel/contracts/GambleOnChain.sol",
  "compiler": {
    "name": "solc",
    "version": "0.4.24+commit.e67f0147.Emscripten.clang"
  },
  "schemaVersion": "2.0.1",
  "updatedAt": "2018-12-01T21:30:44.769Z"
}