{
  "contractName": "GambleOffChain",
  "abi": [
    {
      "anonymous": false,
      "inputs": [
        {
          "indexed": false,
          "name": "senderAddress",
          "type": "address"
        },
        {
          "indexed": false,
          "name": "amountInWei",
          "type": "uint256"
        }
      ],
      "name": "senderAndAmount",
      "type": "event"
    },
    {
      "anonymous": false,
      "inputs": [
        {
          "indexed": false,
          "name": "thePersonAddeed",
          "type": "address"
        },
        {
          "indexed": false,
          "name": "theNewAddress",
          "type": "address"
        },
        {
          "indexed": false,
          "name": "maxAmountCanTransfer",
          "type": "uint256"
        }
      ],
      "name": "newAddressAddedToSenderList",
      "type": "event"
    },
    {
      "anonymous": false,
      "inputs": [
        {
          "indexed": false,
          "name": "newBettor",
          "type": "address"
        },
        {
          "indexed": false,
          "name": "balance",
          "type": "uint256"
        }
      ],
      "name": "newBettor",
      "type": "event"
    },
    {
      "anonymous": false,
      "inputs": [
        {
          "indexed": false,
          "name": "oldBettor",
          "type": "address"
        },
        {
          "indexed": false,
          "name": "newBalance",
          "type": "uint256"
        }
      ],
      "name": "oldBettor",
      "type": "event"
    },
    {
      "constant": false,
      "inputs": [],
      "name": "addFunds",
      "outputs": [],
      "payable": true,
      "stateMutability": "payable",
      "type": "function"
    },
    {
      "constant": false,
      "inputs": [
        {
          "name": "bet",
          "type": "uint256"
        },
        {
          "name": "win",
          "type": "bool"
        }
      ],
      "name": "betOnPayoutTwo",
      "outputs": [],
      "payable": true,
      "stateMutability": "payable",
      "type": "function"
    },
    {
      "constant": true,
      "inputs": [],
      "name": "getContractAddress",
      "outputs": [
        {
          "name": "",
          "type": "address"
        }
      ],
      "payable": false,
      "stateMutability": "view",
      "type": "function"
    },
    {
      "constant": true,
      "inputs": [
        {
          "name": "addy",
          "type": "address"
        }
      ],
      "name": "getBettorBalance",
      "outputs": [
        {
          "name": "",
          "type": "uint256"
        }
      ],
      "payable": false,
      "stateMutability": "view",
      "type": "function"
    },
    {
      "constant": true,
      "inputs": [],
      "name": "getCasinoBalance",
      "outputs": [
        {
          "name": "",
          "type": "uint256"
        }
      ],
      "payable": false,
      "stateMutability": "view",
      "type": "function"
    },
    {
      "constant": false,
      "inputs": [],
      "name": "ReceiverPays",
      "outputs": [],
      "payable": true,
      "stateMutability": "payable",
      "type": "function"
    },
    {
      "constant": false,
      "inputs": [
        {
          "name": "amount",
          "type": "uint256"
        },
        {
          "name": "nonce",
          "type": "uint256"
        },
        {
          "name": "sig",
          "type": "bytes"
        }
      ],
      "name": "claimPayment",
      "outputs": [],
      "payable": false,
      "stateMutability": "nonpayable",
      "type": "function"
    },
    {
      "constant": false,
      "inputs": [],
      "name": "kill",
      "outputs": [],
      "payable": false,
      "stateMutability": "nonpayable",
      "type": "function"
    }
  ],
  "bytecode": "0x6080604052336000806101000a81548173ffffffffffffffffffffffffffffffffffffffff021916908373ffffffffffffffffffffffffffffffffffffffff160217905550600060045534801561005557600080fd5b50610dbd806100656000396000f30060806040526004361061008e576000357c0100000000000000000000000000000000000000000000000000000000900463ffffffff1680631a0843c01461009357806332a2c5d0146100be57806341c0e1b51461011557806366274a0c1461012c578063a26759cb14610183578063a70b21a31461018d578063a90ae88714610197578063bcf8d56214610214575b600080fd5b34801561009f57600080fd5b506100a8610240565b6040518082815260200191505060405180910390f35b3480156100ca57600080fd5b506100d3610263565b604051808273ffffffffffffffffffffffffffffffffffffffff1673ffffffffffffffffffffffffffffffffffffffff16815260200191505060405180910390f35b34801561012157600080fd5b5061012a61026b565b005b34801561013857600080fd5b5061016d600480360381019080803573ffffffffffffffffffffffffffffffffffffffff1690602001909291905050506102df565b6040518082815260200191505060405180910390f35b61018b61032b565b005b6101956106ad565b005b3480156101a357600080fd5b506102126004803603810190808035906020019092919080359060200190929190803590602001908201803590602001908080601f01602080910402602001604051908101604052809392919081815260200183838082843782019150505050505091929192905050506106af565b005b61023e600480360381019080803590602001909291908035151590602001909291905050506108d5565b005b60006004543073ffffffffffffffffffffffffffffffffffffffff163103905090565b600030905090565b6000809054906101000a900473ffffffffffffffffffffffffffffffffffffffff1673ffffffffffffffffffffffffffffffffffffffff163373ffffffffffffffffffffffffffffffffffffffff161415156102c657600080fd5b3373ffffffffffffffffffffffffffffffffffffffff16ff5b6000600160008373ffffffffffffffffffffffffffffffffffffffff1673ffffffffffffffffffffffffffffffffffffffff168152602001908152602001600020600001549050919050565b6000341115156103a3576040517f08c379a00000000000000000000000000000000000000000000000000000000081526004018080602001828103825260178152602001807f596f75206d75737420616464206d6f7265206d6f6e657900000000000000000081525060200191505060405180910390fd5b3373ffffffffffffffffffffffffffffffffffffffff1631341115610430576040517f08c379a000000000000000000000000000000000000000000000000000000000815260040180806020018281038252601e8152602001807f596f7520646f6e277420686176652074686174206d756368206d6f6e6579000081525060200191505060405180910390fd5b60001515600260003373ffffffffffffffffffffffffffffffffffffffff1673ffffffffffffffffffffffffffffffffffffffff16815260200190815260200160002060009054906101000a900460ff16151514156105ad576001600260003373ffffffffffffffffffffffffffffffffffffffff1673ffffffffffffffffffffffffffffffffffffffff16815260200190815260200160002060006101000a81548160ff02191690831515021790555060206040519081016040528034815250600160003373ffffffffffffffffffffffffffffffffffffffff1673ffffffffffffffffffffffffffffffffffffffff168152602001908152602001600020600082015181600001559050507f481d0222d964ac343799a0b1099006d644736db860e4a84c49382de607a12a1c3334604051808373ffffffffffffffffffffffffffffffffffffffff1673ffffffffffffffffffffffffffffffffffffffff1681526020018281526020019250505060405180910390a16106ab565b34600160003373ffffffffffffffffffffffffffffffffffffffff1673ffffffffffffffffffffffffffffffffffffffff168152602001908152602001600020600001600082825401925050819055507f9f849eeca71dab7756e40c8bd4287a540029ae3f9d169890b12ffc2b6705865a33600160003373ffffffffffffffffffffffffffffffffffffffff1673ffffffffffffffffffffffffffffffffffffffff16815260200190815260200160002060000154604051808373ffffffffffffffffffffffffffffffffffffffff1673ffffffffffffffffffffffffffffffffffffffff1681526020018281526020019250505060405180910390a15b565b565b60006003600084815260200190815260200160002060009054906101000a900460ff161515156106de57600080fd5b60016003600085815260200190815260200160002060006101000a81548160ff02191690831515021790555061082233858530604051602001808573ffffffffffffffffffffffffffffffffffffffff1673ffffffffffffffffffffffffffffffffffffffff166c010000000000000000000000000281526014018481526020018381526020018273ffffffffffffffffffffffffffffffffffffffff1673ffffffffffffffffffffffffffffffffffffffff166c010000000000000000000000000281526014019450505050506040516020818303038152906040526040518082805190602001908083835b6020831015156107f057805182526020820191506020810190506020830392506107cb565b6001836020036101000a0380198251168184511680821785525050505050509050019150506040518091039020610beb565b90506000809054906101000a900473ffffffffffffffffffffffffffffffffffffffff1673ffffffffffffffffffffffffffffffffffffffff166108668284610ca6565b73ffffffffffffffffffffffffffffffffffffffff1614151561088857600080fd5b3373ffffffffffffffffffffffffffffffffffffffff166108fc859081150290604051600060405180830381858888f193505050501580156108ce573d6000803e3d6000fd5b5050505050565b600160003373ffffffffffffffffffffffffffffffffffffffff1673ffffffffffffffffffffffffffffffffffffffff168152602001908152602001600020600001548211156109b3576040517f08c379a000000000000000000000000000000000000000000000000000000000815260040180806020018281038252603b8152602001807f596f7520646f6e74206861766520656e6f756768206d6f6e657920696e20796f81526020017f7572206163636f756e7420746f206265742074686174206d756368000000000081525060400191505060405180910390fd5b600a3073ffffffffffffffffffffffffffffffffffffffff16318115156109d657fe5b04600283021115610a75576040517f08c379a00000000000000000000000000000000000000000000000000000000081526004018080602001828103825260238152602001807f436173696e6f2063616e74206166666f726420746f2074616b6520796f75722081526020017f626574000000000000000000000000000000000000000000000000000000000081525060400191505060405180910390fd5b8015610b365760206040519081016040528060028402600160003373ffffffffffffffffffffffffffffffffffffffff1673ffffffffffffffffffffffffffffffffffffffff1681526020019081526020016000206000015401815250600160003373ffffffffffffffffffffffffffffffffffffffff1673ffffffffffffffffffffffffffffffffffffffff1681526020019081526020016000206000820151816000015590505060028202600460008282540192505081905550610be7565b60206040519081016040528083600160003373ffffffffffffffffffffffffffffffffffffffff1673ffffffffffffffffffffffffffffffffffffffff1681526020019081526020016000206000015403815250600160003373ffffffffffffffffffffffffffffffffffffffff1673ffffffffffffffffffffffffffffffffffffffff16815260200190815260200160002060008201518160000155905050816004600082825403925050819055505b5050565b60008160405160200180807f19457468657265756d205369676e6564204d6573736167653a0a333200000000815250601c0182600019166000191681526020019150506040516020818303038152906040526040518082805190602001908083835b602083101515610c725780518252602082019150602081019050602083039250610c4d565b6001836020036101000a03801982511681845116808217855250505050505090500191505060405180910390209050919050565b600080600080610cb585610d4d565b809350819450829550505050600186848484604051600081526020016040526040518085600019166000191681526020018460ff1660ff1681526020018360001916600019168152602001826000191660001916815260200194505050505060206040516020810390808403906000865af1158015610d38573d6000803e3d6000fd5b50505060206040510351935050505092915050565b60008060008060008060418751141515610d6657600080fd5b6020870151925060408701519150606087015160001a905080838395509550955050505091939092505600a165627a7a72305820f4bb31d059c1bc69c5d6d7f4c615fdea65df2483895e1fe1937dc77ebf4cc0a10029",
  "source": "pragma solidity ^0.4.20;\n\ncontract GambleOffChain {\n    address owner = msg.sender;\n    \n    mapping(address => Bet) BettorList;\n    mapping(address => bool) Exists;\n    mapping(uint256 => bool) usedNonces;\n    \n  \n    uint CasinoLosses = 0;\n    \n    event senderAndAmount(address senderAddress, uint amountInWei);\n  \n    event newAddressAddedToSenderList(address thePersonAddeed, address theNewAddress, uint maxAmountCanTransfer);\n    event newBettor(address newBettor, uint balance);\n    event oldBettor(address oldBettor, uint newBalance);\n  \n    struct Bet {\n        uint balance;\n    }\n    \n     \n        \n    function addFunds () public payable {\n        if (msg.value <= 0) {\n            revert(\"You must add more money\");\n        }\n        if (msg.value > msg.sender.balance) {\n            revert(\"You don't have that much money\");\n        }\n        //check if user already exists. if so add to their value if not create new user\n        if (Exists[msg.sender] == false) {\n            Exists[msg.sender] = true;\n            BettorList[msg.sender] = Bet(msg.value);\n            emit newBettor(msg.sender, msg.value); \n        }\n        else {\n            BettorList[msg.sender].balance += msg.value;\n            emit oldBettor(msg.sender, BettorList[msg.sender].balance);      \n        }\n    } \n\n  function betOnPayoutTwo (uint bet, bool win) public payable {\n      if (bet > BettorList[msg.sender].balance) {\n          revert(\"You dont have enough money in your account to bet that much\");\n      }\n      if (bet * 2 > address(this).balance/10) {\n          revert(\"Casino cant afford to take your bet\");\n      }\n      if (win) {\n        BettorList[msg.sender] = Bet(BettorList[msg.sender].balance + bet*2); \n        CasinoLosses += bet * 2;\n      }\n      else {\n        BettorList[msg.sender] = Bet(BettorList[msg.sender].balance - bet);  \n        CasinoLosses -= bet;\n      }\n      \n  }\n    \n    function getContractAddress () public view returns (address) {\n        return this;\n    }\n    \n    function getBettorBalance (address addy) public view returns (uint) {\n        return BettorList[addy].balance; \n    }\n    \n    function getCasinoBalance () public view returns (uint) {\n        return address(this).balance - CasinoLosses;\n    }\n\n    // Funds are sent at deployment time.\n    function ReceiverPays() public payable { }\n\n\n    function claimPayment(uint256 amount, uint256 nonce, bytes sig) public {\n        require(!usedNonces[nonce]);\n        usedNonces[nonce] = true;\n\n        // This recreates the message that was signed on the client.\n        bytes32 message = prefixed(keccak256(abi.encodePacked(msg.sender, amount, nonce, this)));\n\n        require(recoverSigner(message, sig) == owner);\n\n        msg.sender.transfer(amount);\n    }\n\n    // Destroy contract and reclaim leftover funds.\n    function kill() public {\n        require(msg.sender == owner);\n        selfdestruct(msg.sender);\n    }\n\n\n    // Signature methods\n\n    function splitSignature(bytes sig)\n        internal\n        pure\n        returns (uint8, bytes32, bytes32)\n    {\n        require(sig.length == 65);\n\n        bytes32 r;\n        bytes32 s;\n        uint8 v;\n\n        assembly {\n            // first 32 bytes, after the length prefix\n            r := mload(add(sig, 32))\n            // second 32 bytes\n            s := mload(add(sig, 64))\n            // final byte (first byte of the next 32 bytes)\n            v := byte(0, mload(add(sig, 96)))\n        }\n\n        return (v, r, s);\n    }\n\n    function recoverSigner(bytes32 message, bytes sig)\n        internal\n        pure\n        returns (address)\n    {\n        uint8 v;\n        bytes32 r;\n        bytes32 s;\n\n        (v, r, s) = splitSignature(sig);\n\n        return ecrecover(message, v, r, s);\n    }\n\n    // Builds a prefixed hash to mimic the behavior of eth_sign.\n    function prefixed(bytes32 hash) internal pure returns (bytes32) {\n        return keccak256(abi.encodePacked(\"\\x19Ethereum Signed Message:\\n32\", hash));\n    }\n}",
  "sourcePath": "/Users/royshadmon/Ethereum-Payment-Channel/PaymentChannel/contracts/GambleOffChain.sol",
  "compiler": {
    "name": "solc",
    "version": "0.4.24+commit.e67f0147.Emscripten.clang"
  },
  "schemaVersion": "2.0.1",
  "updatedAt": "2018-12-14T19:55:28.948Z"
}