{
  "contractName": "GambleOnChain",
  "abi": [
    {
      "constant": false,
      "inputs": [],
      "name": "kill",
      "outputs": [],
      "payable": false,
      "stateMutability": "nonpayable",
      "type": "function"
    },
    {
      "payable": true,
      "stateMutability": "payable",
      "type": "fallback"
    },
    {
      "anonymous": false,
      "inputs": [
        {
          "indexed": false,
          "name": "senderAddress",
          "type": "address"
        },
        {
          "indexed": false,
          "name": "amountInWei",
          "type": "uint256"
        }
      ],
      "name": "senderAndAmount",
      "type": "event"
    },
    {
      "anonymous": false,
      "inputs": [
        {
          "indexed": false,
          "name": "newBettor",
          "type": "address"
        },
        {
          "indexed": false,
          "name": "balance",
          "type": "uint256"
        }
      ],
      "name": "newBettor",
      "type": "event"
    },
    {
      "anonymous": false,
      "inputs": [
        {
          "indexed": false,
          "name": "oldBettor",
          "type": "address"
        },
        {
          "indexed": false,
          "name": "newBalance",
          "type": "uint256"
        }
      ],
      "name": "oldBettor",
      "type": "event"
    },
    {
      "constant": false,
      "inputs": [],
      "name": "addFunds",
      "outputs": [],
      "payable": true,
      "stateMutability": "payable",
      "type": "function"
    },
    {
      "constant": false,
      "inputs": [
        {
          "name": "amountInWei",
          "type": "uint256"
        }
      ],
      "name": "withdrawMoney",
      "outputs": [],
      "payable": true,
      "stateMutability": "payable",
      "type": "function"
    },
    {
      "constant": true,
      "inputs": [],
      "name": "getContractAddress",
      "outputs": [
        {
          "name": "",
          "type": "address"
        }
      ],
      "payable": false,
      "stateMutability": "view",
      "type": "function"
    },
    {
      "constant": true,
      "inputs": [],
      "name": "getBettorBalance",
      "outputs": [
        {
          "name": "",
          "type": "uint256"
        }
      ],
      "payable": false,
      "stateMutability": "view",
      "type": "function"
    },
    {
      "constant": true,
      "inputs": [],
      "name": "getCasinoBalance",
      "outputs": [
        {
          "name": "",
          "type": "uint256"
        }
      ],
      "payable": false,
      "stateMutability": "view",
      "type": "function"
    }
  ],
  "bytecode": "0x60806040523073ffffffffffffffffffffffffffffffffffffffff1631600355336000806101000a81548173ffffffffffffffffffffffffffffffffffffffff021916908373ffffffffffffffffffffffffffffffffffffffff16021790555061097e8061006e6000396000f300608060405260043610610078576000357c0100000000000000000000000000000000000000000000000000000000900463ffffffff1680631a0843c01461007a57806332a2c5d0146100a557806341c0e1b5146100fc578063548769211461011357806387503fe714610133578063a26759cb1461015e575b005b34801561008657600080fd5b5061008f610168565b6040518082815260200191505060405180910390f35b3480156100b157600080fd5b506100ba610172565b604051808273ffffffffffffffffffffffffffffffffffffffff1673ffffffffffffffffffffffffffffffffffffffff16815260200191505060405180910390f35b34801561010857600080fd5b5061011161017a565b005b6101316004803603810190808035906020019092919050505061020e565b005b34801561013f57600080fd5b506101486104ea565b6040518082815260200191505060405180910390f35b610166610534565b005b6000600354905090565b600030905090565b3373ffffffffffffffffffffffffffffffffffffffff166000809054906101000a900473ffffffffffffffffffffffffffffffffffffffff1673ffffffffffffffffffffffffffffffffffffffff161415610209576000809054906101000a900473ffffffffffffffffffffffffffffffffffffffff1673ffffffffffffffffffffffffffffffffffffffff16ff5b600080fd5b60001515600260003373ffffffffffffffffffffffffffffffffffffffff1673ffffffffffffffffffffffffffffffffffffffff16815260200190815260200160002060009054906101000a900460ff16151514156102fb576040517f08c379a00000000000000000000000000000000000000000000000000000000081526004018080602001828103825260288152602001807f596f75277265206e6f7420616c6c6f77656420746f206d616b6520612074726181526020017f6e73616374696f6e00000000000000000000000000000000000000000000000081525060400191505060405180910390fd5b600160003373ffffffffffffffffffffffffffffffffffffffff1673ffffffffffffffffffffffffffffffffffffffff168152602001908152602001600020600001548111801561036257503073ffffffffffffffffffffffffffffffffffffffff163181115b156103fb576040517f08c379a000000000000000000000000000000000000000000000000000000000815260040180806020018281038252602a8152602001807f596f7520646f6e277420686176652074686174206d756368206d6f6e6579207481526020017f6f2077697468647261770000000000000000000000000000000000000000000081525060400191505060405180910390fd5b80600160003373ffffffffffffffffffffffffffffffffffffffff1673ffffffffffffffffffffffffffffffffffffffff168152602001908152602001600020600001600082825403925050819055503373ffffffffffffffffffffffffffffffffffffffff166108fc829081150290604051600060405180830381858888f19350505050158015610491573d6000803e3d6000fd5b506000600160003373ffffffffffffffffffffffffffffffffffffffff1673ffffffffffffffffffffffffffffffffffffffff1681526020019081526020016000206000015414156104e7576104e6336108b6565b5b50565b6000600160003373ffffffffffffffffffffffffffffffffffffffff1673ffffffffffffffffffffffffffffffffffffffff16815260200190815260200160002060000154905090565b6000341115156105ac576040517f08c379a00000000000000000000000000000000000000000000000000000000081526004018080602001828103825260178152602001807f596f75206d75737420616464206d6f7265206d6f6e657900000000000000000081525060200191505060405180910390fd5b3373ffffffffffffffffffffffffffffffffffffffff1631341115610639576040517f08c379a000000000000000000000000000000000000000000000000000000000815260040180806020018281038252601e8152602001807f596f7520646f6e277420686176652074686174206d756368206d6f6e6579000081525060200191505060405180910390fd5b60001515600260003373ffffffffffffffffffffffffffffffffffffffff1673ffffffffffffffffffffffffffffffffffffffff16815260200190815260200160002060009054906101000a900460ff16151514156107b6576001600260003373ffffffffffffffffffffffffffffffffffffffff1673ffffffffffffffffffffffffffffffffffffffff16815260200190815260200160002060006101000a81548160ff02191690831515021790555060206040519081016040528034815250600160003373ffffffffffffffffffffffffffffffffffffffff1673ffffffffffffffffffffffffffffffffffffffff168152602001908152602001600020600082015181600001559050507f481d0222d964ac343799a0b1099006d644736db860e4a84c49382de607a12a1c3334604051808373ffffffffffffffffffffffffffffffffffffffff1673ffffffffffffffffffffffffffffffffffffffff1681526020018281526020019250505060405180910390a16108b4565b34600160003373ffffffffffffffffffffffffffffffffffffffff1673ffffffffffffffffffffffffffffffffffffffff168152602001908152602001600020600001600082825401925050819055507f9f849eeca71dab7756e40c8bd4287a540029ae3f9d169890b12ffc2b6705865a33600160003373ffffffffffffffffffffffffffffffffffffffff1673ffffffffffffffffffffffffffffffffffffffff16815260200190815260200160002060000154604051808373ffffffffffffffffffffffffffffffffffffffff1673ffffffffffffffffffffffffffffffffffffffff1681526020018281526020019250505060405180910390a15b565b600160008273ffffffffffffffffffffffffffffffffffffffff1673ffffffffffffffffffffffffffffffffffffffff1681526020019081526020016000206000808201600090555050600260008273ffffffffffffffffffffffffffffffffffffffff1673ffffffffffffffffffffffffffffffffffffffff16815260200190815260200160002060006101000a81549060ff0219169055505600a165627a7a7230582024b594aaf29d86a5374aaba20d3bbb4b8b7717a5526b954910b977bf2664ce080029",
  "source": "pragma solidity ^0.4.20;\n\nimport './mortal.sol';\n\ncontract GambleOnChain is mortal {\n    \n  mapping(address => Bet) BettorList;\n  mapping(address => bool) Exists;\n  \n  uint CasinoBalance = address(this).balance;\n  \n  \n  event senderAndAmount(address senderAddress, uint amountInWei);\n  \n  event newBettor(address newBettor, uint balance);\n  event oldBettor(address oldBettor, uint newBalance);\n  \n  struct Bet {\n      uint balance; \n  }\n \n  \n  function addFunds () public payable {\n      if (msg.value <= 0) {\n          revert(\"You must add more money\");\n      }\n      if (msg.value > msg.sender.balance) {\n          revert(\"You don't have that much money\");\n      }\n      //check if user already exists. if so add to their value if not create new user\n      if (Exists[msg.sender] == false) {\n          Exists[msg.sender] = true;\n          BettorList[msg.sender] = Bet(msg.value);\n          emit newBettor(msg.sender, msg.value); \n      }\n      else {\n        BettorList[msg.sender].balance += msg.value;\n        emit oldBettor(msg.sender, BettorList[msg.sender].balance);      \n      }\n      \n        \n      \n      \n  } \n  \n  // winning even/odd or red/black bet\n  function betOnPayout2 (uint bet, bool win) private {\n      if (bet > BettorList[msg.sender].balance) {\n          revert(\"You don't have enough money in your account to bet that much\");\n      }\n      if (bet * 2 > CasinoBalance/10) {\n          revert(\"Casino can't afford to take your bet\");\n      }\n      if (win) {\n        BettorList[msg.sender] = Bet(BettorList[msg.sender].balance + bet*2); \n        CasinoBalance -= bet * 2;\n      }\n      else {\n        BettorList[msg.sender] = Bet(BettorList[msg.sender].balance - bet);  \n        CasinoBalance += bet;\n      }\n      \n  }\n    // function winPayout35 (address winner, uint bet) private {\n    //     if (Exists[winner]) {\n    //         BettorList[winner].balance += (bet * 35);\n    //     }\n    // }  \n  \n  function withdrawMoney (uint amountInWei) public payable {\n        if (Exists[msg.sender] == false) {\n            revert(\"You're not allowed to make a transaction\");\n        }\n        if (amountInWei > BettorList[msg.sender].balance && amountInWei > address(this).balance) {\n            revert(\"You don't have that much money to withdraw\");\n        }\n        BettorList[msg.sender].balance -= amountInWei;\n        msg.sender.transfer(amountInWei);\n        \n        if (BettorList[msg.sender].balance == 0) {\n            removeBettorFromList(msg.sender);\n        }\n        \n  }  \n  \n    function removeBettorFromList (address bettor) private {\n        delete BettorList[bettor];\n        delete Exists[bettor];\n    }  \n\n\n    function () public payable {\n    }\n  \n    \n    \n    function getContractAddress () public view returns (address) {\n        return this;\n    }\n    \n    function getBettorBalance () public view returns (uint) {\n        return BettorList[msg.sender].balance; \n    }\n    \n    function getCasinoBalance () public view returns (uint) {\n        return CasinoBalance;\n    } \n    \n    \n  \n\n  \n//   function addAddressToSenderList(address permitted) public onlyOwner {\n//       mySenderList[permitted] = Permission(true, msg.value);\n//       emit newAddressAddedToSenderList(msg.sender, permitted, msg.value);\n//   }\n  \n  // function addAddressToReceiverList(address permitted) public onlyOwner {\n  //     myReceiverList[permitted] = Receiver(true);\n  //     emit newAddressAddedToReceiverList(msg.sender, permitted);\n  // }\n  \n//   function removeFromAddressToSenderList(address notPermitted) public onlyOwner {\n//       delete mySenderList[notPermitted];\n//   }\n  \n  // function removeAddressFromReceiverList(address notPermitted) public onlyOwner {\n  //     delete myReceiverList[notPermitted];\n  // }\n\n}",
  "sourcePath": "/Users/royshadmon/Ethereum-Payment-Channel/PaymentChannel/contracts/GambleOnChain.sol",
  "compiler": {
    "name": "solc",
    "version": "0.4.24+commit.e67f0147.Emscripten.clang"
  },
  "schemaVersion": "2.0.1",
  "updatedAt": "2018-11-30T22:29:12.001Z"
}