{
  "contractName": "GambleOnChain",
  "abi": [
    {
      "constant": false,
      "inputs": [],
      "name": "kill",
      "outputs": [],
      "payable": false,
      "stateMutability": "nonpayable",
      "type": "function"
    },
    {
      "payable": true,
      "stateMutability": "payable",
      "type": "fallback"
    },
    {
      "anonymous": false,
      "inputs": [
        {
          "indexed": false,
          "name": "senderAddress",
          "type": "address"
        },
        {
          "indexed": false,
          "name": "amountInWei",
          "type": "uint256"
        }
      ],
      "name": "senderAndAmount",
      "type": "event"
    },
    {
      "anonymous": false,
      "inputs": [
        {
          "indexed": false,
          "name": "thePersonAddeed",
          "type": "address"
        },
        {
          "indexed": false,
          "name": "theNewAddress",
          "type": "address"
        },
        {
          "indexed": false,
          "name": "maxAmountCanTransfer",
          "type": "uint256"
        }
      ],
      "name": "newAddressAddedToSenderList",
      "type": "event"
    },
    {
      "anonymous": false,
      "inputs": [
        {
          "indexed": false,
          "name": "newBettor",
          "type": "address"
        },
        {
          "indexed": false,
          "name": "balance",
          "type": "uint256"
        }
      ],
      "name": "newBettor",
      "type": "event"
    },
    {
      "anonymous": false,
      "inputs": [
        {
          "indexed": false,
          "name": "oldBettor",
          "type": "address"
        },
        {
          "indexed": false,
          "name": "newBalance",
          "type": "uint256"
        }
      ],
      "name": "oldBettor",
      "type": "event"
    },
    {
      "constant": false,
      "inputs": [],
      "name": "addFunds",
      "outputs": [],
      "payable": true,
      "stateMutability": "payable",
      "type": "function"
    },
    {
      "constant": false,
      "inputs": [
        {
          "name": "bet",
          "type": "uint256"
        },
        {
          "name": "win",
          "type": "bool"
        }
      ],
      "name": "betOnPayoutTwo",
      "outputs": [],
      "payable": true,
      "stateMutability": "payable",
      "type": "function"
    },
    {
      "constant": false,
      "inputs": [
        {
          "name": "bet",
          "type": "uint256"
        },
        {
          "name": "win",
          "type": "bool"
        }
      ],
      "name": "payout35",
      "outputs": [],
      "payable": true,
      "stateMutability": "payable",
      "type": "function"
    },
    {
      "constant": false,
      "inputs": [
        {
          "name": "amountInWei",
          "type": "uint256"
        }
      ],
      "name": "withdrawMoney",
      "outputs": [],
      "payable": true,
      "stateMutability": "payable",
      "type": "function"
    },
    {
      "constant": false,
      "inputs": [
        {
          "name": "bettor",
          "type": "address"
        }
      ],
      "name": "removeBettorFromList",
      "outputs": [],
      "payable": false,
      "stateMutability": "nonpayable",
      "type": "function"
    },
    {
      "constant": true,
      "inputs": [],
      "name": "checkExists",
      "outputs": [
        {
          "name": "",
          "type": "bool"
        }
      ],
      "payable": false,
      "stateMutability": "view",
      "type": "function"
    },
    {
      "constant": true,
      "inputs": [],
      "name": "getContractAddress",
      "outputs": [
        {
          "name": "",
          "type": "address"
        }
      ],
      "payable": false,
      "stateMutability": "view",
      "type": "function"
    },
    {
      "constant": true,
      "inputs": [],
      "name": "getBettorBalance",
      "outputs": [
        {
          "name": "",
          "type": "uint256"
        }
      ],
      "payable": false,
      "stateMutability": "view",
      "type": "function"
    },
    {
      "constant": true,
      "inputs": [],
      "name": "getCasinoBalance",
      "outputs": [
        {
          "name": "",
          "type": "uint256"
        }
      ],
      "payable": false,
      "stateMutability": "view",
      "type": "function"
    }
  ],
  "bytecode": "0x60806040526000600355336000806101000a81548173ffffffffffffffffffffffffffffffffffffffff021916908373ffffffffffffffffffffffffffffffffffffffff160217905550611006806100586000396000f3006080604052600436106100a4576000357c0100000000000000000000000000000000000000000000000000000000900463ffffffff1680631a0843c0146100a65780631d57a64f146100d157806332a2c5d01461010057806341c0e1b514610157578063548769211461016e57806363f410f71461018e57806387503fe7146101d1578063950a14de146101fc578063a26759cb14610228578063bcf8d56214610232575b005b3480156100b257600080fd5b506100bb61025e565b6040518082815260200191505060405180910390f35b3480156100dd57600080fd5b506100e6610281565b604051808215151515815260200191505060405180910390f35b34801561010c57600080fd5b506101156102e6565b604051808273ffffffffffffffffffffffffffffffffffffffff1673ffffffffffffffffffffffffffffffffffffffff16815260200191505060405180910390f35b34801561016357600080fd5b5061016c6102ee565b005b61018c60048036038101908080359060200190929190505050610382565b005b34801561019a57600080fd5b506101cf600480360381019080803573ffffffffffffffffffffffffffffffffffffffff16906020019092919050505061057a565b005b3480156101dd57600080fd5b506101e6610616565b6040518082815260200191505060405180910390f35b61022660048036038101908080359060200190929190803515159060200190929190505050610660565b005b61023061092f565b005b61025c60048036038101908080359060200190929190803515159060200190929190505050610cb1565b005b60006003543073ffffffffffffffffffffffffffffffffffffffff163103905090565b6000600260003373ffffffffffffffffffffffffffffffffffffffff1673ffffffffffffffffffffffffffffffffffffffff16815260200190815260200160002060009054906101000a900460ff16156102de57600190506102e3565b600090505b90565b600030905090565b3373ffffffffffffffffffffffffffffffffffffffff166000809054906101000a900473ffffffffffffffffffffffffffffffffffffffff1673ffffffffffffffffffffffffffffffffffffffff16141561037d576000809054906101000a900473ffffffffffffffffffffffffffffffffffffffff1673ffffffffffffffffffffffffffffffffffffffff16ff5b600080fd5b61038a610281565b50600160003373ffffffffffffffffffffffffffffffffffffffff1673ffffffffffffffffffffffffffffffffffffffff16815260200190815260200160002060000154811180156103f257503073ffffffffffffffffffffffffffffffffffffffff163181115b1561048b576040517f08c379a00000000000000000000000000000000000000000000000000000000081526004018080602001828103825260298152602001807f596f7520646f6e7420686176652074686174206d756368206d6f6e657920746f81526020017f207769746864726177000000000000000000000000000000000000000000000081525060400191505060405180910390fd5b80600160003373ffffffffffffffffffffffffffffffffffffffff1673ffffffffffffffffffffffffffffffffffffffff168152602001908152602001600020600001600082825403925050819055503373ffffffffffffffffffffffffffffffffffffffff166108fc829081150290604051600060405180830381858888f19350505050158015610521573d6000803e3d6000fd5b506000600160003373ffffffffffffffffffffffffffffffffffffffff1673ffffffffffffffffffffffffffffffffffffffff168152602001908152602001600020600001541415610577576105763361057a565b5b50565b600160008273ffffffffffffffffffffffffffffffffffffffff1673ffffffffffffffffffffffffffffffffffffffff1681526020019081526020016000206000808201600090555050600260008273ffffffffffffffffffffffffffffffffffffffff1673ffffffffffffffffffffffffffffffffffffffff16815260200190815260200160002060006101000a81549060ff021916905550565b6000600160003373ffffffffffffffffffffffffffffffffffffffff1673ffffffffffffffffffffffffffffffffffffffff16815260200190815260200160002060000154905090565b610668610281565b50600160003373ffffffffffffffffffffffffffffffffffffffff1673ffffffffffffffffffffffffffffffffffffffff16815260200190815260200160002060000154821115610747576040517f08c379a000000000000000000000000000000000000000000000000000000000815260040180806020018281038252603b8152602001807f596f7520646f6e74206861766520656e6f756768206d6f6e657920696e20796f81526020017f7572206163636f756e7420746f206265742074686174206d756368000000000081525060400191505060405180910390fd5b600a3073ffffffffffffffffffffffffffffffffffffffff163181151561076a57fe5b04602383021115610809576040517f08c379a00000000000000000000000000000000000000000000000000000000081526004018080602001828103825260238152602001807f436173696e6f2063616e74206166666f726420746f2074616b6520796f75722081526020017f626574000000000000000000000000000000000000000000000000000000000081525060400191505060405180910390fd5b801561087a5760238202600160003373ffffffffffffffffffffffffffffffffffffffff1673ffffffffffffffffffffffffffffffffffffffff168152602001908152602001600020600001600082825401925050819055506023820260036000828254019250508190555061092b565b60206040519081016040528083600160003373ffffffffffffffffffffffffffffffffffffffff1673ffffffffffffffffffffffffffffffffffffffff1681526020019081526020016000206000015403815250600160003373ffffffffffffffffffffffffffffffffffffffff1673ffffffffffffffffffffffffffffffffffffffff16815260200190815260200160002060008201518160000155905050816003600082825403925050819055505b5050565b6000341115156109a7576040517f08c379a00000000000000000000000000000000000000000000000000000000081526004018080602001828103825260178152602001807f596f75206d75737420616464206d6f7265206d6f6e657900000000000000000081525060200191505060405180910390fd5b3373ffffffffffffffffffffffffffffffffffffffff1631341115610a34576040517f08c379a000000000000000000000000000000000000000000000000000000000815260040180806020018281038252601e8152602001807f596f7520646f6e277420686176652074686174206d756368206d6f6e6579000081525060200191505060405180910390fd5b60001515600260003373ffffffffffffffffffffffffffffffffffffffff1673ffffffffffffffffffffffffffffffffffffffff16815260200190815260200160002060009054906101000a900460ff1615151415610bb1576001600260003373ffffffffffffffffffffffffffffffffffffffff1673ffffffffffffffffffffffffffffffffffffffff16815260200190815260200160002060006101000a81548160ff02191690831515021790555060206040519081016040528034815250600160003373ffffffffffffffffffffffffffffffffffffffff1673ffffffffffffffffffffffffffffffffffffffff168152602001908152602001600020600082015181600001559050507f481d0222d964ac343799a0b1099006d644736db860e4a84c49382de607a12a1c3334604051808373ffffffffffffffffffffffffffffffffffffffff1673ffffffffffffffffffffffffffffffffffffffff1681526020018281526020019250505060405180910390a1610caf565b34600160003373ffffffffffffffffffffffffffffffffffffffff1673ffffffffffffffffffffffffffffffffffffffff168152602001908152602001600020600001600082825401925050819055507f9f849eeca71dab7756e40c8bd4287a540029ae3f9d169890b12ffc2b6705865a33600160003373ffffffffffffffffffffffffffffffffffffffff1673ffffffffffffffffffffffffffffffffffffffff16815260200190815260200160002060000154604051808373ffffffffffffffffffffffffffffffffffffffff1673ffffffffffffffffffffffffffffffffffffffff1681526020018281526020019250505060405180910390a15b565b610cb9610281565b1515610cc457600080fd5b600160003373ffffffffffffffffffffffffffffffffffffffff1673ffffffffffffffffffffffffffffffffffffffff16815260200190815260200160002060000154821115610da2576040517f08c379a000000000000000000000000000000000000000000000000000000000815260040180806020018281038252603b8152602001807f596f7520646f6e74206861766520656e6f756768206d6f6e657920696e20796f81526020017f7572206163636f756e7420746f206265742074686174206d756368000000000081525060400191505060405180910390fd5b600a3073ffffffffffffffffffffffffffffffffffffffff1631811515610dc557fe5b04600283021115610e64576040517f08c379a00000000000000000000000000000000000000000000000000000000081526004018080602001828103825260238152602001807f436173696e6f2063616e74206166666f726420746f2074616b6520796f75722081526020017f626574000000000000000000000000000000000000000000000000000000000081525060400191505060405180910390fd5b8015610f255760206040519081016040528060028402600160003373ffffffffffffffffffffffffffffffffffffffff1673ffffffffffffffffffffffffffffffffffffffff1681526020019081526020016000206000015401815250600160003373ffffffffffffffffffffffffffffffffffffffff1673ffffffffffffffffffffffffffffffffffffffff1681526020019081526020016000206000820151816000015590505060028202600360008282540192505081905550610fd6565b60206040519081016040528083600160003373ffffffffffffffffffffffffffffffffffffffff1673ffffffffffffffffffffffffffffffffffffffff1681526020019081526020016000206000015403815250600160003373ffffffffffffffffffffffffffffffffffffffff1673ffffffffffffffffffffffffffffffffffffffff16815260200190815260200160002060008201518160000155905050816003600082825403925050819055505b50505600a165627a7a7230582058829b4131016e85f9826e9d66e35966700db05aa13f15496e2e3520cd0c97680029",
  "source": "pragma solidity ^0.4.20;\n\nimport './mortal.sol';\n\ncontract GambleOnChain is mortal {\n    \n  mapping(address => Bet) BettorList;\n  mapping(address => bool) Exists;\n  \n  uint CasinoLosses = 0;\n  \n  \n  event senderAndAmount(address senderAddress, uint amountInWei);\n  \n  event newAddressAddedToSenderList(address thePersonAddeed, address theNewAddress, uint maxAmountCanTransfer);\n  event newBettor(address newBettor, uint balance);\n  event oldBettor(address oldBettor, uint newBalance);\n  \n  struct Bet {\n      uint balance; \n  }\n \n  \n  function addFunds () public payable {\n      if (msg.value <= 0) {\n          revert(\"You must add more money\");\n      }\n      if (msg.value > msg.sender.balance) {\n          revert(\"You don't have that much money\");\n      }\n      //check if user already exists. if so add to their value if not create new user\n      if (Exists[msg.sender] == false) {\n          Exists[msg.sender] = true;\n          BettorList[msg.sender] = Bet(msg.value);\n          emit newBettor(msg.sender, msg.value); \n      }\n      else {\n        BettorList[msg.sender].balance += msg.value;\n        emit oldBettor(msg.sender, BettorList[msg.sender].balance);      \n      }\n      \n        \n      \n      \n  } \n  \n  // winning even/odd or red/black bet\n  function betOnPayoutTwo (uint bet, bool win) public payable {\n      if (!checkExists()) {\n        revert();\n      }\n      if (bet > BettorList[msg.sender].balance) {\n          revert(\"You dont have enough money in your account to bet that much\");\n      }\n      if (bet * 2 > address(this).balance/10) {\n          revert(\"Casino cant afford to take your bet\");\n      }\n      if (win) {\n        BettorList[msg.sender] = Bet(BettorList[msg.sender].balance + bet*2); \n        CasinoLosses += bet * 2;\n      }\n      else {\n        BettorList[msg.sender] = Bet(BettorList[msg.sender].balance - bet);  \n        CasinoLosses -= bet;\n      }\n      \n  }\n    function payout35 (uint bet, bool win) public payable {\n        checkExists();\n        if (bet > BettorList[msg.sender].balance) {\n            revert(\"You dont have enough money in your account to bet that much\");\n        }\n        if (bet * 35 > address(this).balance/10) {\n            revert(\"Casino cant afford to take your bet\");\n        }\n        if (win) {\n            BettorList[msg.sender].balance += (bet * 35);\n            CasinoLosses += bet * 35;\n        }\n        else {\n            BettorList[msg.sender] = Bet(BettorList[msg.sender].balance - bet);  \n            CasinoLosses -= bet;  \n        }\n    }  \n  \n  function withdrawMoney (uint amountInWei) public payable {\n        checkExists();\n        if (amountInWei > BettorList[msg.sender].balance && amountInWei > address(this).balance) {\n            revert(\"You dont have that much money to withdraw\");\n        }\n        BettorList[msg.sender].balance -= amountInWei;\n        msg.sender.transfer(amountInWei);\n        \n        if (BettorList[msg.sender].balance == 0) {\n            removeBettorFromList(msg.sender);\n        }\n        \n    }  \n  \n    function removeBettorFromList (address bettor) public {\n        delete BettorList[bettor];\n        delete Exists[bettor];\n    }  \n\n\n    function () public payable {\n    }\n  \n    function checkExists () public view returns (bool) {\n      if (Exists[msg.sender]) {\n        return true;\n      }\n      return false;\n    }\n\n\n    \n    function getContractAddress () public view returns (address) {\n        return this;\n    }\n    \n    function getBettorBalance () public view returns (uint) {\n        return BettorList[msg.sender].balance; \n    }\n    \n    function getCasinoBalance () public view returns (uint) {\n        return address(this).balance - CasinoLosses;\n    } \n    \n    \n  \n\n  \n//   function addAddressToSenderList(address permitted) public onlyOwner {\n//       mySenderList[permitted] = Permission(true, msg.value);\n//       emit newAddressAddedToSenderList(msg.sender, permitted, msg.value);\n//   }\n  \n  // function addAddressToReceiverList(address permitted) public onlyOwner {\n  //     myReceiverList[permitted] = Receiver(true);\n  //     emit newAddressAddedToReceiverList(msg.sender, permitted);\n  // }\n  \n//   function removeFromAddressToSenderList(address notPermitted) public onlyOwner {\n//       delete mySenderList[notPermitted];\n//   }\n  \n  // function removeAddressFromReceiverList(address notPermitted) public onlyOwner {\n  //     delete myReceiverList[notPermitted];\n  // }\n\n}",
  "sourcePath": "/Users/royshadmon/Ethereum-Payment-Channel/PaymentChannel/contracts/GambleOnChain.sol",
  "compiler": {
    "name": "solc",
    "version": "0.4.24+commit.e67f0147.Emscripten.clang"
  },
  "schemaVersion": "2.0.1",
  "updatedAt": "2018-12-06T06:28:01.479Z"
}