{
  "contractName": "mortal",
  "abi": [
    {
      "inputs": [],
      "payable": true,
      "stateMutability": "payable",
      "type": "constructor"
    },
    {
      "constant": false,
      "inputs": [],
      "name": "kill",
      "outputs": [],
      "payable": false,
      "stateMutability": "nonpayable",
      "type": "function"
    }
  ],
  "bytecode": "0x6080604052336000806101000a81548173ffffffffffffffffffffffffffffffffffffffff021916908373ffffffffffffffffffffffffffffffffffffffff160217905550610117806100536000396000f300608060405260043610603f576000357c0100000000000000000000000000000000000000000000000000000000900463ffffffff16806341c0e1b5146044575b600080fd5b348015604f57600080fd5b5060566058565b005b3373ffffffffffffffffffffffffffffffffffffffff166000809054906101000a900473ffffffffffffffffffffffffffffffffffffffff1673ffffffffffffffffffffffffffffffffffffffff16141560e6576000809054906101000a900473ffffffffffffffffffffffffffffffffffffffff1673ffffffffffffffffffffffffffffffffffffffff16ff5b600080fd00a165627a7a723058209bf65dcd7395f99ab1af9efe4ca463cce3b0be17af37ceafafc9fdb92350bf4b0029",
  "source": "pragma solidity ^0.4.20;\n\ncontract mortal {\n    address owner;\n    \n    constructor() payable public {\n        owner = msg.sender; \n    }\n    \n    modifier onlyOwner() {\n      if(owner == msg.sender) {\n          _;\n      }\n      else revert();\n  }\n    \n    function kill() public onlyOwner{\n        selfdestruct(owner);\n    }\n}",
  "sourcePath": "/Users/royshadmon/Ethereum-Payment-Channel/PaymentChannel/contracts/mortal.sol",
  "compiler": {
    "name": "solc",
    "version": "0.4.24+commit.e67f0147.Emscripten.clang"
  },
  "schemaVersion": "2.0.1",
  "updatedAt": "2018-12-01T21:30:44.764Z"
}