{
  "contractName": "SecureSpending",
  "abi": [
    {
      "constant": false,
      "inputs": [],
      "name": "kill",
      "outputs": [],
      "payable": false,
      "stateMutability": "nonpayable",
      "type": "function"
    },
    {
      "payable": true,
      "stateMutability": "payable",
      "type": "fallback"
    },
    {
      "constant": false,
      "inputs": [
        {
          "name": "receiver",
          "type": "address"
        },
        {
          "name": "amountInWei",
          "type": "uint256"
        }
      ],
      "name": "sendFunds",
      "outputs": [],
      "payable": false,
      "stateMutability": "nonpayable",
      "type": "function"
    },
    {
      "constant": true,
      "inputs": [],
      "name": "getAddress",
      "outputs": [
        {
          "name": "",
          "type": "address"
        }
      ],
      "payable": false,
      "stateMutability": "view",
      "type": "function"
    },
    {
      "constant": true,
      "inputs": [
        {
          "name": "addy",
          "type": "address"
        }
      ],
      "name": "getBalance",
      "outputs": [
        {
          "name": "",
          "type": "uint256"
        }
      ],
      "payable": false,
      "stateMutability": "view",
      "type": "function"
    }
  ],
  "bytecode": "0x6080604052336000806101000a81548173ffffffffffffffffffffffffffffffffffffffff021916908373ffffffffffffffffffffffffffffffffffffffff1602179055506102aa806100536000396000f300608060405260043610610062576000357c0100000000000000000000000000000000000000000000000000000000900463ffffffff16806338cc48311461006457806341c0e1b5146100bb5780636f64234e146100d2578063f8b2cb4f1461011f575b005b34801561007057600080fd5b50610079610176565b604051808273ffffffffffffffffffffffffffffffffffffffff1673ffffffffffffffffffffffffffffffffffffffff16815260200191505060405180910390f35b3480156100c757600080fd5b506100d061017e565b005b3480156100de57600080fd5b5061011d600480360381019080803573ffffffffffffffffffffffffffffffffffffffff16906020019092919080359060200190929190505050610212565b005b34801561012b57600080fd5b50610160600480360381019080803573ffffffffffffffffffffffffffffffffffffffff16906020019092919050505061025d565b6040518082815260200191505060405180910390f35b600033905090565b3373ffffffffffffffffffffffffffffffffffffffff166000809054906101000a900473ffffffffffffffffffffffffffffffffffffffff1673ffffffffffffffffffffffffffffffffffffffff16141561020d576000809054906101000a900473ffffffffffffffffffffffffffffffffffffffff1673ffffffffffffffffffffffffffffffffffffffff16ff5b600080fd5b8173ffffffffffffffffffffffffffffffffffffffff166108fc829081150290604051600060405180830381858888f19350505050158015610258573d6000803e3d6000fd5b505050565b60008173ffffffffffffffffffffffffffffffffffffffff163190509190505600a165627a7a72305820efceaa01fe4b20984a2ce59cece8dfd4aba9f40938f3d1d7eea487bd7a533ad30029",
  "source": "pragma solidity ^0.4.20;\n\nimport './mortal.sol';\n\ncontract SecureSpending is mortal {\n    \n  // mapping(address => Permission) mySenderList;\n  // mapping(address => Receiver) myReceiverList;\n  \n  // event newAddressAddedToSenderList(address thePersonAddeed, address theNewAddress, uint maxAmountCanTransfer);\n  // event newAddressAddedToReceiverList(address thePersonAdded, address theNewAddress);\n  \n  // struct Permission {\n  //     bool isAllowed;\n  //     uint maxTransferAmount;\n  // }\n  \n  // struct Receiver {\n  //     bool isAllowed;\n  // }\n  \n  // function addAddressToSenderList(address permitted, uint maxTransferAmount) public onlyOwner {\n  //     mySenderList[permitted] = Permission(true, maxTransferAmount);\n  //     emit newAddressAddedToSenderList(msg.sender, permitted, maxTransferAmount);\n  // }\n  \n  // function addAddressToReceiverList(address permitted) public onlyOwner {\n  //     myReceiverList[permitted] = Receiver(true);\n  //     emit newAddressAddedToReceiverList(msg.sender, permitted);\n  // }\n  \n  // function removeFromAddressToSenderList(address notPermitted) public onlyOwner {\n  //     delete mySenderList[notPermitted];\n  // }\n  \n  // function removeAddressFromReceiverList(address notPermitted) public onlyOwner {\n  //     delete myReceiverList[notPermitted];\n  // }\n  \n  function sendFunds(address receiver, uint amountInWei) public {\n        // require(mySenderList[msg.sender].isAllowed);\n        // require(myReceiverList[receiver].isAllowed);\n        // require(mySenderList[msg.sender].maxTransferAmount >= amountInWei);\n        receiver.transfer(amountInWei);\n    }\n    \n    function getAddress () public view returns (address) {\n        return msg.sender;\n    }\n\n    function getBalance (address addy) public view returns (uint256) {\n        return addy.balance; \n    }\n  \n  function () public payable {\n      \n  }\n}",
  "sourcePath": "/Users/royshadmon/Ethereum-Payment-Channel/PaymentChannel/contracts/SecurePayment.sol",
  "compiler": {
    "name": "solc",
    "version": "0.4.24+commit.e67f0147.Emscripten.clang"
  },
  "schemaVersion": "2.0.1",
  "updatedAt": "2018-11-11T19:33:31.711Z"
}